:100000000C9464000C948C000C948C000C948C0068
:100010000C948C000C948C000C948C000C948C0030
:100020000C948C000C948C000C948C000C948C0020
:100030000C948C000C948C000C948C000C948C0010
:100040000C9430070C948C000C941F080C948C00BA
:100050000C948C000C948C000C948C000C948C00F0
:100060000C948C000C948C000000000024002700ED
:100070002A0000000000250028002B0000000000DE
:1000800023002600290004040404040404040202DA
:100090000202020203030303030301020408102007
:1000A0004080010204081020010204081020000012
:1000B0000007000201000003040600000000000029
:1000C0000000A300B009A40011241FBECFEFD8E0A8
:1000D000DEBFCDBF13E0A0E0B1E0EEE6F5E102C087
:1000E00005900D92A037B107D9F716E0A0E7B3E06D
:1000F00001C01D92AE33B107E1F710E0C6ECD0E0CD
:1001000004C02297FE010E94A60AC23CD107C9F78B
:100110000E9429070C94AA0A0C940000FC01EB5FD2
:10012000FE4F808191810895FC01EC5FFE4F80813C
:100130000895FC01E95FFE4F80810895FC01E85FAE
:10014000FE4F8081089508950895AF92BF92CF9297
:10015000DF92EF92FF920F931F93CF93DF93EC0107
:100160008C010D5F1E4F22E0E22E21E0F22EE80E00
:10017000F91E92E0A92E83E0C82EBB24BA94DD2498
:10018000D3948BE296E00E945509803821F48BE2EB
:1001900096E00E9491098BE296E00E94550988231F
:1001A00009F4BBC18BE296E00E946909F8019081D5
:1001B000992309F0CEC08B83998197FF0FC0943F9C
:1001C00069F0953F59F0993F49F09D3F39F0292F4B
:1001D00030E0903F28F4207F307002C020E030E013
:1001E000203B3105B1F0213B310554F42039310574
:1001F00081F0203A310569F02038310581F409C0D9
:10020000203D310531F0203E310519F0203C31050B
:1002100031F487FD04C09B838C83F801D0822B814D
:1002200027FF0FC0243F69F0253F59F0293F49F0CF
:100230002D3F39F0822F90E0203F28F4807F90708E
:1002400002C080E090E0813F910509F46CC0823FDC
:1002500091054CF5803B910509F468C0813B9105FF
:100260006CF48039910509F461C0803A910509F474
:100270005DC08038910509F05FC058C0803D910590
:1002800009F451C0813D91052CF4803C910509F0A1
:1002900053C049C0803E910509F448C0803F910594
:1002A00009F04AC046C0883F9105B9F0893F9105E1
:1002B00054F4833F9105B9F1833F9105BCF1863F2A
:1002C0009105D1F50AC08A3F9105B4F18D3F9105A2
:1002D00024F08E5F9040029778F527FF0FC0243FEF
:1002E00069F0253F59F0293F49F02D3F39F0822F21
:1002F00090E0203F28F4807F907002C080E090E082
:10030000CB5FDE4F998388831A92239619921882C5
:10031000C050DF4F81E08883C650D14019921882C7
:10032000C350D1407AC0F701A0820EC0F701C0824D
:100330000BC0F701B08208C0CD5FDE4F1882C350FA
:10034000D140F701108295C0F80180818F5F8083D2
:1003500018CF87FF64C08D3F40F48A3F48F4873F41
:10036000B9F0883F09F05BC003C08E3F08F457C066
:10037000FE01EB5FFE4F80831182C95FDE4F199251
:10038000188224971882CC5FDE4F81E08883C6C034
:100390008B8187FF68C0843F09F465C0853F09F4FD
:1003A00062C0893F09F45FC08D3F09F45CC0282F0B
:1003B00030E0803F20F4C901807F907001C0C90106
:1003C000803F910509F04FC0FE0190E08381E75F17
:1003D000FE4F80839F5FE850F1409F3FB9F7CB5FAE
:1003E000DE4F80EF90E099838883C550D140FE01B5
:1003F000ED5FFE4F80818F5FC95FDE4F888321965E
:10040000188224971882CC5FDE4F81E088831082A7
:10041000C650D1401882C250D14019827FC0FE011F
:10042000E90FF11D8383F8014081242F30E0F701AB
:10043000808190E00197281739070CF46AC02B815E
:1004400027FF25C0243F19F1253F09F1293FF9F085
:100450002D3F89F0822F90E0203F10F4807F907034
:10046000803F910541F4CD5FDE4F18821A92C25051
:10047000D140198252C02D3F51F0822F90E0203F91
:1004800020F49C01207F307004C09C0102C020E059
:1004900030E0CB5FDE4F39832883C550D1408B815C
:1004A0008F708F5FCC5FDE4F8883C450D1408C81CA
:1004B000C95FDE4F8883C750D1408D81C85FDE4F52
:1004C0008883259718821A92CA5FDE4F81E088835D
:1004D000C850D240203B3105B1F0213B310554F4E6
:1004E0002039310581F0203A310569F02038310595
:1004F00069F409C0203D310531F0203E310519F085
:10050000203C310519F48B81898301C0198281E077
:1005100005C04F5FF801408334CE80E0DF91CF917A
:100520001F910F91FF90EF90DF90CF90BF90AF9011
:1005300008956D3F710554F46A3F710564F4663F98
:10054000710549F0683F710551F405C0CB018E5F1C
:100550009040029720F48BE296E00E949D09089556
:10056000FF920F931F93F62E0BE216E0C80163EF84
:100570000E949D098FE7F822C8016F2D0E949D09F6
:100580001F910F91FF900895EF92FF920F931F9389
:100590008B014BE2E42E46E0F42EC70162EF0E948D
:1005A0009D09602F6F77C7010E949D09000F012FE1
:1005B000001F110B11950F77C701602F0E949D0935
:1005C0001F910F91FF90EF900895FF920F931F934B
:1005D000F62E0BE216E0C80161EF0E949D09C801EA
:1005E0006F2D0E949D091F910F91FF90089570E05B
:1005F0006770707054E0660F771F5A95E1F74F707F
:10060000462B642F0E94E5020895EF92FF920F930C
:100610001F93CF93DF93E62E142F052FF22E222364
:1006200029F48BE296E060EF0E949D09812F902FC4
:100630009C01E90110E006C08BE296E069910E94FE
:100640009D091F5F1E15C0F3FF2029F48BE296E081
:1006500067EF0E949D09DF91CF911F910F91FF904D
:10066000EF900895FF920F931F93CF93DF93FC01B8
:10067000EB01142FF22E0150003110F0108254C003
:10068000603E710571F1613E7105C4F4603A710517
:1006900041F1613A710544F46038710511F1603936
:1006A000710509F041C01DC0603C7105D1F0603D8D
:1006B0007105B9F0603B7105B9F513C06D3F710567
:1006C00054F46A3F710564F5663F710549F1683F6E
:1006D000710551F525C0CB018E5F9040029720F542
:1006E0001FC0602F6F706C2B8081861729F060838C
:1006F0008BE296E00E949D091F778BE296E0612FC6
:100700000E949D09C03CD10579F0C03DD10561F042
:100710008FE7F8228BE296E06F2D0E949D0904C0BE
:10072000CF01BE010E949902DF91CF911F910F91DD
:10073000FF9008950F931F93DC01AB5FBE4F6D9147
:100740007C911197A550B140CB01805890408136E3
:10075000910588F5AC5FBE4F0C91A450B140129644
:100760008C911297081719F010E0882309F411E012
:10077000A65FBD4F8D919C911197AA50B2408230D7
:10078000910539F08330910541F0019709F07AC065
:1007900007C0112309F476C003C0112309F072C009
:1007A000FD01E85FFE4FCD01A95FBE4F4C91208156
:1007B0000E94320367C0A65FBD4F8D919C91119737
:1007C000AA50B240892B09F45CC0663F710531F133
:1007D000673F7105A4F4613F710509F448C0623FA9
:1007E00071052CF4603F710509F04BC01BC0623FDE
:1007F000710551F1633F710509F043C01EC06D3FA3
:1008000071053CF46A3F71054CF4683F7105C9F508
:1008100005C0CB018E5F9040029798F5CD010E94F4
:1008200099022FC0AD01475F5E4FCD01A95FBE4F5A
:100830006C9121E00E94050324C0CD01A95FBE4F49
:100840006C910E94B0021DC0A85FBE4F6C9170E019
:100850007695762F6627779567958E91A750B1404C
:1008600090E0682B792BCD010E94C4020AC0FD01E3
:10087000E85FFE4FCD01A95FBE4F6C9140810E94A1
:10088000F70211E0812F1F910F9108951F93CF93CD
:10089000DF93EC01162F613148F40E94A5008823F4
:1008A00029F0CE01612F0E949A0301C080E0DF9100
:1008B000CF911F910895FC0162810E944604089522
:1008C000FF920F931F938C01F62E8BE296E042E18C
:1008D0005AE760E070E00E945C08F8011082F28242
:1008E00011820D5F1E4FF801108212928F010A5F74
:1008F0001E4FF801108203501140F801118210823E
:1009000012928F010D5F1F4FF80111928F0110821B
:100910000E5F1E4F81E090E0F801918380831F916C
:100920000F91FF9008957F928F929F92AF92BF9206
:10093000CF92DF92EF92FF920F931F93CF93DF93AB
:1009400080E793E00E945B04882309F45BC280E7A0
:1009500093E00E949400813009F054C280E793E054
:100960000E948E008039910531F1803B910509F09C
:1009700049C280E793E00E949900082F80E793E046
:100980000E949E00282F10E08091640390916503DF
:100990000817190709F036C2222309F033C2CEEF37
:1009A000D0E0888160E00E94D207229681E0C232C6
:1009B000D807B9F727C280E793E00E949900E82E94
:1009C000FF2480E793E00E949E00782E9EEF892E00
:1009D00090E0992ECC24DD245701AA0CBB1CA80C56
:1009E000B91CEC14FD0459F4772021F0F501808145
:1009F00061E003C0F401808160E00E94D207F0E36F
:100A0000EF16F104C1F40CE715E0C0E0D1E0F80105
:100A100080819181892B19F4888160E002C08881EE
:100A200061E00E94D2070E5F1F4F2296F5E00E395B
:100A30001F0769F71CC081E3E816F104C1F402E264
:100A400011E0C0E0D1E0F80180819181892B19F497
:100A5000888160E002C0888161E00E94D2070E5F59
:100A60001F4F2296F1E006341F0769F71CC082E38E
:100A7000E816F104C1F404E411E0C0E0D1E0F801AB
:100A800080819181892B19F4888160E002C088817E
:100A900061E00E94D2070E5F1F4F2296F1E00836F8
:100AA0001F0769F71CC083E3E816F104C1F406E6EA
:100AB00011E0C0E0D1E0F80180819181892B19F427
:100AC000888160E002C0888161E00E94D2070E5FE9
:100AD0001F4F2296F1E00A381F0769F71CC084E314
:100AE000E816F104C1F408E811E0C0E0D1E0F80133
:100AF00080819181892B19F4888160E002C088810E
:100B000061E00E94D2070E5F1F4F2296F1E00C3A7F
:100B10001F0769F71CC085E3E816F104C1F40AEA6F
:100B200011E0C0E0D1E0F80180819181892B19F4B6
:100B3000888160E002C0888161E00E94D2070E5F78
:100B40001F4F2296F1E00E3C1F0769F71CC086E399
:100B5000E816F104C1F40CEC11E0C0E0D1E0F801BA
:100B600080819181892B19F4888160E002C088819D
:100B700061E00E94D2070E5F1F4F2296F1E0003F16
:100B80001F0769F71CC087E3E816F104C1F40EEEF5
:100B900011E0C0E0D1E0F80180819181892B19F446
:100BA000888160E002C0888161E00E94D2070E5F08
:100BB0001F4F2296F2E002311F0769F71CC088E33D
:100BC000E816F104C1F400E112E0C0E0D1E0F80160
:100BD00080819181892B19F4888160E002C088812D
:100BE00061E00E94D2070E5F1F4F2296F2E00433AD
:100BF0001F0769F71CC089E3E816F104C1F402E39A
:100C000012E0C0E0D1E0F80180819181892B19F4D4
:100C1000888160E002C0888161E00E94D2070E5F97
:100C20001F4F2296F2E006351F0769F71CC08AE3C2
:100C3000E816F104C1F404E512E0C0E0D1E0F801E7
:100C400080819181892B19F4888160E002C08881BC
:100C500061E00E94D2070E5F1F4F2296F2E0083734
:100C60001F0769F71CC08BE3E816F104C1F406E71F
:100C700012E0C0E0D1E0F80180819181892B19F464
:100C8000888160E002C0888161E00E94D2070E5F27
:100C90001F4F2296F2E00A391F0769F71CC08CE348
:100CA000E816F104C1F408E912E0C0E0D1E0F8016F
:100CB00080819181892B19F4888160E002C088814C
:100CC00061E00E94D2070E5F1F4F2296F2E00C3BBC
:100CD0001F0769F71CC08DE3E816F104C1F40AEBA5
:100CE00012E0C0E0D1E0F80180819181892B19F4F4
:100CF000888160E002C0888161E00E94D2070E5FB7
:100D00001F4F2296F2E00E3D1F0769F71CC08EE3CD
:100D1000E816F104C1F40CED12E0C0E0D1E0F801F6
:100D200080819181892B19F4888160E002C08881DB
:100D300061E00E94D2070E5F1F4F2296F3E0003061
:100D40001F0769F71CC08FE3E816F104C1F40EEF2A
:100D500012E0C0E0D1E0F80180819181892B19F483
:100D6000888160E002C0888161E00E94D2070E5F46
:100D70001F4F2296F3E002321F0769F71CC080E480
:100D8000E816F104C1F400E213E0C0E0D1E0F8019C
:100D900080819181892B19F4888160E002C088816B
:100DA00061E00E94D2070E5F1F4F2296F3E00434E9
:100DB0001F0769F71BC081E4E816F104B9F402E4E7
:100DC00013E0C0E0D1E0F80180819181892B19F412
:100DD000888160E002C0888161E00E94D2070E5FD6
:100DE0001F4F2296F3E006361F0769F70894C11CCF
:100DF000D11C82E090E0880E991E92E1C916D104C0
:100E000009F0EFCDDF91CF911F910F91FF90EF90FF
:100E1000DF90CF90BF90AF909F908F907F9008957C
:100E2000CF93DF93C0E0D1E0888161E00E94B207F8
:100E3000888160E00E94D207229681E0C432D80700
:100E400099F780E793E061E00E946004DF91CF9121
:100E500008950E9478070E9410070E949304FDCF16
:100E60001F920F920FB60F9211242F933F938F93DF
:100E70009F93AF93BF938091A2059091A305A091FA
:100E8000A405B091A5053091A6050196A11DB11D3F
:100E9000232F2D5F2D3720F02D570196A11DB11D59
:100EA0002093A6058093A2059093A305A093A40583
:100EB000B093A50580919E0590919F05A091A005F6
:100EC000B091A1050196A11DB11D80939E0590933F
:100ED0009F05A093A005B093A105BF91AF919F91ED
:100EE0008F913F912F910F900FBE0F901F901895EB
:100EF000789484B5826084BD84B5816084BD85B5F5
:100F0000826085BD85B5816085BDEEE6F0E08081BB
:100F100081608083E1E8F0E080818260808380816D
:100F200081608083E0E8F0E0808181608083E1EB94
:100F3000F0E0808184608083E0EBF0E0808181607C
:100F40008083EAE7F0E08081846080838081826032
:100F5000808380818160808380818068808310921B
:100F6000C1000895282F30E0C90186569F4FFC012B
:100F700094912A573F4FF9018491882391F0E82FEB
:100F8000F0E0EE0FFF1FE859FF4FA591B4916623E3
:100F900029F48C91909589238C9308958C91892BB9
:100FA0008C930895482F50E0CA0182559F4FFC0151
:100FB0002491CA0186569F4FFC0194914A575F4F76
:100FC000FA0134913323D1F1222331F1233021F47A
:100FD000809180008F7705C0243031F480918000AB
:100FE0008F7D8093800018C0213019F484B58F77ED
:100FF00004C0223021F484B58F7D84BD0DC026301D
:1010000021F48091B0008F7705C0273029F48091BA
:10101000B0008F7D8093B000E32FF0E0EE0FFF1F54
:10102000EE58FF4FA591B491662329F48C919095C9
:1010300089238C9308958C91892B8C9308951F920A
:101040000F920FB60F9211242F933F934F935F93FC
:101050006F937F938F939F93AF93BF93EF93FF9380
:101060004091C600E0912706F0912806CF01019635
:1010700060E870E00E94400A9C01809129069091EE
:101080002A062817390739F0E955FA4F408330937B
:10109000280620932706FF91EF91BF91AF919F9172
:1010A0008F917F916F915F914F913F912F910F9011
:1010B0000FBE0F901F9018955F926F927F928F9244
:1010C0009F92AF92BF92CF92DF92EF92FF920F93D7
:1010D0001F93CF93DF93EC013A014B01413482E43B
:1010E00058078FE0680780E078070CF07FC060E861
:1010F00074E88EE190E0A40193010E94750A2150EA
:10110000304040405040CA01B90122E030E040E0A8
:1011100050E00E94750A59016A01A60195012095C7
:1011200030954095509594E0220F331F441F551F72
:101130009A95D1F760E074E284EF90E00E94750A1E
:10114000CA01B9012FEF30E040E050E00E94210ACF
:10115000A40193010E94750AC90181509F4F18167E
:1011600019061CF4522E5A9403C055245394521A53
:1011700060E079E08DE390E0A40193010E94750A9C
:101180002150304040405040CA01B90122E030E0D7
:1011900040E050E00E94750A2095309540955095AA
:1011A00083E0220F331F441F551F8A95D1F760E05B
:1011B00074E284EF90E00E94750ACA01B9012FEF32
:1011C00030E040E050E00E94210AA40193010E9417
:1011D000750AC90181509F4F181619061CF4822FF9
:1011E000815002C081E0821B851500F5E885F985F4
:1011F00081E090E00A8802C0880F991F0A94E2F704
:10120000808360E079E08DE390E0A40193010E9487
:10121000750A2150304040405040CA01B90122E0D7
:1012200030E040E050E00E94750A04C0E885F9858E
:1012300010829501EC81FD813083EE81FF81208356
:10124000EA85FB85208141E050E0CA010E8402C09E
:10125000880F991F0A94E2F7282B2083EA85FB85E3
:101260002081CA010F8402C0880F991F0A94E2F7F7
:10127000282B2083EA85FB858081088802C0440FE3
:10128000551F0A94E2F7842B8083DF91CF911F9141
:101290000F91FF90EF90DF90CF90BF90AF909F9015
:1012A0008F907F906F905F900895DC011296ED9182
:1012B000FC911397E058FF4F8191919180589F4F77
:1012C00020813181821B930B60E870E00E94400A0C
:1012D0000895CF93DF93DC011296ED91FC91139763
:1012E000EF01CE57DF4F48815981E058FF4F808191
:1012F0009181E058F0408417950719F42FEF3FEFE4
:101300000CC0E40FF51F2081CA01019660E870E06F
:101310000E94400A9983888330E0C901DF91CF9110
:101320000895DC011296ED91FC911397EE57FF4F53
:1013300080819181929382930895FC01A085B1856B
:1013400021898C9190E0022E02C0959587950A9490
:10135000E2F780FFF6CF0484F585E02D60830895E1
:101360008AE693E090932C0680932B0687EA95E01B
:1013700090932E0680932D0685EC90E09093300696
:1013800080932F0684EC90E0909332068093310690
:1013900080EC90E0909334068093330681EC90E0EB
:1013A000909336068093350686EC90E0909338064D
:1013B0008093370684E08093390683E080933A0671
:1013C00087E080933B0685E080933C0681E0809334
:1013D0003D0608950F931F93CF93DF938C01EB018C
:1013E00009C02196D801ED91FC910190F081E02D8A
:1013F000C801099568816623A1F7DF91CF911F91FC
:101400000F910895EF92FF920F931F93CF93DF9365
:101410008C017B01EA010CC0D7016D917D01D801DF
:10142000ED91FC910190F081E02DC8010995219783
:10143000209791F7DF91CF911F910F91FF90EF903F
:101440000895629FD001739FF001829FE00DF11D0E
:10145000649FE00DF11D929FF00D839FF00D749F2E
:10146000F00D659FF00D9927729FB00DE11DF91FDA
:10147000639FB00DE11DF91FBD01CF011124089537
:1014800097FB092E07260AD077FD04D049D006D055
:1014900000201AF4709561957F4F0895F6F79095A6
:1014A00081959F4F0895A1E21A2EAA1BBB1BFD0137
:1014B0000DC0AA1FBB1FEE1FFF1FA217B307E40733
:1014C000F50720F0A21BB30BE40BF50B661F771F8B
:1014D000881F991F1A9469F760957095809590956B
:1014E0009B01AC01BD01CF01089597FB092E052694
:1014F0000ED057FD04D0D7DF0AD0001C38F4509529
:101500004095309521953F4F4F4F5F4F0895F6F727
:1015100090958095709561957F4F8F4F9F4F08955F
:10152000AA1BBB1B51E107C0AA1FBB1FA617B70709
:1015300010F0A61BB70B881F991F5A95A9F7809525
:101540009095BC01CD010895EE0FFF1F0590F49119
:10155000E02D099410E0C6ECD0E004C0FE010E942A
:0E156000A60A2296C83CD107C9F7F894FFCF1F
:10156E001200020003000400050006000700080038
:10157E0009000A000B000C000D000E000F001000F9
:10158E00110001000000000000000000000000003B
:10159E00000000000000000000000000000000003D
:1015AE00000000000000010000000000000000002C
:1015BE00000000000000000000000000000000001D
:1015CE00000000000000000000000100000000000C
:1015DE0000000000000000000000000000000000FD
:1015EE0000000000000000000000000000000100EC
:1015FE0000000000000000000000000000000000DD
:10160E0000000000000000000000000000000000CC
:10161E0000000100000000000000000000000000BB
:10162E0000000000000000000000000000000000AC
:10163E00000000000000010000000000000000009B
:10164E00000000000000000000000000000000008C
:10165E00000000000000000000000100000000007B
:10166E00000000000000000000000000000000006C
:10167E00000000000000000000000000000001005B
:10168E00000000000000000000000000000000004C
:10169E00000000000000000000000000000000003C
:1016AE00000001000000000000000000000000002B
:1016BE00000000000000000000000000000000001C
:1016CE00000000000000010000000000000000000B
:1016DE0000000000000000000000000000000000FC
:1016EE0000000000000000000000010000000000EB
:1016FE0000000000000000000000000000000000DC
:10170E0000000000000000000000000000000100CA
:10171E0000000000000000000000000000000000BB
:10172E0000000000000000000000000000000000AB
:10173E00000001000000000000000000000000009A
:10174E00000000000000000000000000000000008B
:10175E00000000000000010000000000000000007A
:10176E00000000000000000000000000000000006B
:10177E00000000000000000000000100000000005A
:10178E00000000000000000000000000000000004B
:10179E00000000000000000000000000000001003A
:1017AE00000000000000000000000000000000002B
:1017BE00000000000000000000000000000000001B
:1017CE00000001007B00000000009D09EA09020AEA
:00000001FF
